{
  "contractName": "IpfsCid",
  "abi": [
    {
      "inputs": [
        {
          "internalType": "bytes32",
          "name": "_hash",
          "type": "bytes32"
        },
        {
          "internalType": "bytes2",
          "name": "_hash_function",
          "type": "bytes2"
        },
        {
          "internalType": "uint8",
          "name": "_size",
          "type": "uint8"
        }
      ],
      "name": "storeCIDAsStruct",
      "outputs": [],
      "stateMutability": "nonpayable",
      "type": "function"
    },
    {
      "inputs": [
        {
          "internalType": "string",
          "name": "_cid",
          "type": "string"
        }
      ],
      "name": "storeCIDAsString",
      "outputs": [],
      "stateMutability": "nonpayable",
      "type": "function"
    },
    {
      "inputs": [],
      "name": "getCIDAsString",
      "outputs": [
        {
          "internalType": "string",
          "name": "",
          "type": "string"
        }
      ],
      "stateMutability": "view",
      "type": "function",
      "constant": true
    },
    {
      "inputs": [],
      "name": "getCIDAsStruct",
      "outputs": [
        {
          "components": [
            {
              "internalType": "bytes32",
              "name": "hash",
              "type": "bytes32"
            },
            {
              "internalType": "bytes2",
              "name": "hash_function",
              "type": "bytes2"
            },
            {
              "internalType": "uint8",
              "name": "size",
              "type": "uint8"
            }
          ],
          "internalType": "struct IpfsCid.Multihash",
          "name": "",
          "type": "tuple"
        }
      ],
      "stateMutability": "view",
      "type": "function",
      "constant": true
    }
  ],
  "bytecode": "0x608060405234801561001057600080fd5b506107c8806100206000396000f3fe608060405234801561001057600080fd5b506004361061004c5760003560e01c80637c4baf10146100515780639875c2fc1461006d578063ac0aaa3b1461008b578063d19ad24a146100a7575b600080fd5b61006b6004803603810190610066919061041b565b6100c5565b005b61007561010f565b60405161008291906104dd565b60405180910390f35b6100a560048036038101906100a0919061063e565b6101a9565b005b6100af6101c3565b6040516100bc919061070f565b60405180910390f35b82600160000181905550816001800160006101000a81548161ffff021916908360f01c0217905550806001800160026101000a81548160ff021916908360ff160217905550505050565b610117610255565b6001604051806060016040529081600082015481526020016001820160009054906101000a900460f01b7dffffffffffffffffffffffffffffffffffffffffffffffffffffffffffff19167dffffffffffffffffffffffffffffffffffffffffffffffffffffffffffff191681526020016001820160029054906101000a900460ff1660ff1660ff1681525050905090565b80600090805190602001906101bf92919061029d565b5050565b6060600080546101d290610760565b80601f01602080910402602001604051908101604052809291908181526020018280546101fe90610760565b801561024b5780601f106102205761010080835404028352916020019161024b565b820191906000526020600020905b81548152906001019060200180831161022e57829003601f168201915b5050505050905090565b60405180606001604052806000801916815260200160007dffffffffffffffffffffffffffffffffffffffffffffffffffffffffffff19168152602001600060ff1681525090565b8280546102a990610760565b90600052602060002090601f0160209004810192826102cb5760008555610312565b82601f106102e457805160ff1916838001178555610312565b82800160010185558215610312579182015b828111156103115782518255916020019190600101906102f6565b5b50905061031f9190610323565b5090565b5b8082111561033c576000816000905550600101610324565b5090565b6000604051905090565b600080fd5b600080fd5b6000819050919050565b61036781610354565b811461037257600080fd5b50565b6000813590506103848161035e565b92915050565b60007fffff00000000000000000000000000000000000000000000000000000000000082169050919050565b6103bf8161038a565b81146103ca57600080fd5b50565b6000813590506103dc816103b6565b92915050565b600060ff82169050919050565b6103f8816103e2565b811461040357600080fd5b50565b600081359050610415816103ef565b92915050565b6000806000606084860312156104345761043361034a565b5b600061044286828701610375565b9350506020610453868287016103cd565b925050604061046486828701610406565b9150509250925092565b61047781610354565b82525050565b6104868161038a565b82525050565b610495816103e2565b82525050565b6060820160008201516104b1600085018261046e565b5060208201516104c4602085018261047d565b5060408201516104d7604085018261048c565b50505050565b60006060820190506104f2600083018461049b565b92915050565b600080fd5b600080fd5b6000601f19601f8301169050919050565b7f4e487b7100000000000000000000000000000000000000000000000000000000600052604160045260246000fd5b61054b82610502565b810181811067ffffffffffffffff8211171561056a57610569610513565b5b80604052505050565b600061057d610340565b90506105898282610542565b919050565b600067ffffffffffffffff8211156105a9576105a8610513565b5b6105b282610502565b9050602081019050919050565b82818337600083830152505050565b60006105e16105dc8461058e565b610573565b9050828152602081018484840111156105fd576105fc6104fd565b5b6106088482856105bf565b509392505050565b600082601f830112610625576106246104f8565b5b81356106358482602086016105ce565b91505092915050565b6000602082840312156106545761065361034a565b5b600082013567ffffffffffffffff8111156106725761067161034f565b5b61067e84828501610610565b91505092915050565b600081519050919050565b600082825260208201905092915050565b60005b838110156106c15780820151818401526020810190506106a6565b838111156106d0576000848401525b50505050565b60006106e182610687565b6106eb8185610692565b93506106fb8185602086016106a3565b61070481610502565b840191505092915050565b6000602082019050818103600083015261072981846106d6565b905092915050565b7f4e487b7100000000000000000000000000000000000000000000000000000000600052602260045260246000fd5b6000600282049050600182168061077857607f821691505b6020821081141561078c5761078b610731565b5b5091905056fea26469706673582212208011009a107cba0bd492fe568622413772dfe07ed70eecb1c60871deda068e9b64736f6c634300080a0033",
  "immutableReferences": {},
  "source": "pragma solidity >=0.4.22 <0.9.0;\r\n\r\ncontract IpfsCid {\r\n  struct Multihash {\r\n    bytes32 hash;\r\n    bytes2 hash_function;\r\n    uint8 size;\r\n  }\r\n\r\n  string cid;\r\n\r\n  Multihash multihashCid;\r\n\r\n  function storeCIDAsStruct(bytes32 _hash, bytes2 _hash_function, uint8 _size) public {\r\n    multihashCid.hash = _hash;\r\n    multihashCid.hash_function = _hash_function;\r\n    multihashCid.size = _size;\r\n  }\r\n\r\n  function storeCIDAsString(string memory _cid) public {\r\n    cid = _cid;\r\n  }\r\n  //View functions ensure that they will not modify the state\r\n  function getCIDAsString() public view returns (string memory) {\r\n    return cid;\r\n  }\r\n  //View functions ensure that they will not modify the state\r\n  function getCIDAsStruct() public view returns (Multihash memory) {\r\n    return multihashCid;\r\n  }\r\n\r\n}",
  "sourcePath": "D:\\Github\\ipfs_eth_console\\contracts\\IpfsCid.sol",
  "compiler": {
    "name": "solc",
    "version": "0.8.10+commit.fc410830.Emscripten.clang"
  },
  "schemaVersion": "3.4.3",
  "updatedAt": "2021-11-22T01:51:55.560Z",
  "networkType": "ethereum",
  "devdoc": {
    "kind": "dev",
    "methods": {},
    "version": 1
  },
  "userdoc": {
    "kind": "user",
    "methods": {},
    "version": 1
  }
}